:020000040800F2
:10000000680F0020251500082D1500082F15000881
:1000100031150008331500083515000800000000F0
:10002000000000000000000000000000371500087C
:1000300039150008000000003B1500083D150008B8
:100040003F1500083F1500083F1500083F15000840
:100050003F1500083F1500083F1500083F15000830
:100060003F1500083F1500083F1500083F15000820
:100070003F1500083F1500083F1500083F15000810
:100080003F1500089D7D00083F1500083F1500083A
:100090003F1500083F1500083F1500083F150008F0
:1000A0003F1500083F1500083F1500083F150008E0
:1000B0003F1500083F1500083F1500083F150008D0
:1000C0003F1500083F1500083F1500083F150008C0
:1000D0003F1500082D110008E37E0008FD7D000893
:1000E0003F1500083F1500083F150008716400081F
:1000F0003F1500083F1500083F1500083F15000890
:100100003F1500083F1500083F1500083F1500087F
:100110003F1500083F1500083F1500083F1500086F
:100120003F1500083F1500083F1500083F1500085F
:100130003F1500083F1500083F150008810500081D
:10014000970500083F1500083F1500083F150008F7
:100150003F1500083F1500083F1500083F1500082F
:100160003F1500083F1500083F1500083F1500081F
:100170003F1500083F1500083F1500083F1500080F
:100180003F1500083F150008DFF80CD009F050F8C3
:1001900000480047A7010008680F002000E0401E4B
:1001A0000028FCDC70471FB50024104B0FCB8DE8F6
:1001B0000F004FF480600E49088048808880C88016
:1001C0000020887201200B49087000F097F80CE0BD
:1001D00000F0DCF8641C322C07DD074808F02FF82B
:1001E0001521054807F0EFFD0024F1E7BCA8000841
:1001F0006203002038000020B402002010B504463D
:100200006FF0040001F0F3F9E11704EB5171C1F351
:10021000C701384A11701046007800EB4001C1EB6D
:10022000C0104FF6FF7101EAC0003349088010BDCD
:100230000146304A12784A434FF0E0235A610022C7
:100240009A611A46126942F001021A6100BF4FF02A
:10025000E022106910F0010F02D010F4803FF6D0B8
:100260004FF0E022126922F001024FF0E0231A6100
:1002700000229A61704701461F4A12884A434FF094
:10028000E0235A6100229A611A46126942F0010283
:100290001A6100BF4FF0E022106910F0010F02D088
:1002A00010F4803FF6D04FF0E022126922F00102F4
:1002B0004FF0E0231A6100229A61704770B504463E
:1002C0004FF4077094FBF0F0C6B24FF4077094FB44
:1002D000F0F100FB114085B205E04FF40770FFF725
:1002E000CAFF701EC6B2002EF7D115B12846FFF71F
:1002F000C2FF70BD000000200200002010B500F019
:100300006BFC4FF47A7000F0CEFC06F096FA06F023
:1003100049F9A820FFF772FF3548B0F85C000128C2
:1003200003D108F04BF808F027F800F065F807F063
:1003300098FC07F0B3FB00F099F900F0EEFC06F032
:10034000CEFC06F083FC00F0A7F8002007F031FB9C
:10035000002006F09DFF4FF47A70FFF7AFFF00F02A
:10036000E5F900F03AFA00F031FD05F0D7F905F0B3
:1003700099F805F033F905F013FF4FF47A70FFF7A1
:100380009DFF00F068F805F028FF10BD10B50120B2
:1003900005F0D6FD1748B0F90A0003EE100AB8EED2
:1003A000C33AF0EE432A1348B0F9080003EE100AEE
:1003B000B8EEC33AB0EE432A0E48B0F9060003EE99
:1003C000100AB8EEC33AF0EE431A0A4890ED113A1B
:1003D000B0EE431A90ED103AF0EE430A90ED0F3A6A
:1003E000B0EE430A04F06EFD05F04AFB10BD0000BC
:1003F000CCA80008880300201CB50121052002F0CC
:1004000019FD0620009001208DF8040000208DF8D1
:10041000060003208DF8050001208DF807006946CD
:100420001A4802F0B1F90621184802F029FA4FF4EF
:100430000060009001208DF8040000208DF8060077
:1004400003208DF8050001208DF80700694610484B
:1004500002F09AF91CBD1CB50121084602F0EAFC25
:100460001020009001208DF8040003208DF8050075
:1004700000208DF8060002208DF807006946044828
:1004800002F082F90120034908601CBD0008024007
:10049000000002409002404200B58BB001210220D2
:1004A00002F0C8FC0121480602F00DFD012188067A
:1004B00002F009FD09220D21654802F0F0F9092238
:1004C0000C21634802F0EBF94FF4405002900220F7
:1004D0008DF80C0002A95E4802F056F940208DF814
:1004E000040000208DF8050001208DF806008DF82D
:1004F000070001A801F02DF8564801F097F808A868
:1005000001F0B8F900208DF826008DF827008DF84D
:1005100028008DF829008DF82A008DF82B008DF821
:1005200022008DF8230008208DF8240003208DF888
:100530002500ADF8200008A9464801F090F80E20EB
:100540008DF81A0000208DF81B0001208DF81C008A
:100550000020ADF81000ADF81200ADF81400ADF8B1
:100560001600ADF8180001208DF81D0004A801F058
:1005700000F901220221374801F0FAFB0BB000BD5F
:1005800010B50121334801F05AFC18B1012131485E
:1005900001F0EFFC10BD10B502212E4801F04FFC18
:1005A000002854D002212B4801F0E3FC2A4A002104
:1005B000284801F0C2FA28480068A0F50071063901
:1005C00008D12548017BC07A01EB002000B2234905
:1005D00088803CE020480068A0F5007105390CD106
:1005E0001D48017BC07A01EB002000B21C49488005
:1005F000084640881B49888029E017480068B0F504
:10060000007F24D914480068B0F5017F1FD8124834
:10061000017BC07A01EB002000EE100AB8EEC00AA0
:100620000D480068A0F201200F4901EB800080ED29
:10063000000A0948817B407B01EB002002B206489A
:100640000068A0F201200849303121F8102010BDC7
:100650000004024000680040F4020020A0040020D2
:1006600020050020C80400206405002000B58BB0E0
:100670000121084602F038FC0121084602F0DAFBAD
:1006800001220A21FC4802F00AF94FF48060099027
:1006900002208DF8280003208DF8290000208DF815
:1006A0002A0001208DF82B0009A9F34802F06CF80C
:1006B0001420ADF818000020ADF81A004FF47A703D
:1006C00007900020ADF8200006A9EC4803F067FC75
:1006D0007020ADF804000120ADF806000020ADF850
:1006E00008004FF47A7003900220ADF8100000204B
:1006F000ADF81200ADF814004FF48070ADF816009C
:1007000001A9DE4803F066FD0821DC4803F07FFE06
:100710000121DA4803F0AEFC0121D84803F0C8FCFF
:100720000121D64804F0B5F80BB000BD00B589B082
:100730000121022002F07EFB0121022002F0C3FB16
:100740003020079002208DF8200000208DF8220034
:100750008DF8230003208DF8210007A9C84802F076
:1007600013F802220421C64802F099F8022205215A
:10077000C34802F094F84FF6FF7005900020ADF8E2
:100780001000ADF81200ADF8180004A9BD4803F040
:1007900006FC00231A460321BA4804F074F901A8A4
:1007A00004F00BF80020ADF80400ADF806000120BD
:1007B000ADF808000020ADF80A00ADF80C0001A962
:1007C000B04803F0C3FF0021AE4803F031FC012123
:1007D000AC4803F06DFC09B000BD00B58BB0012141
:1007E000022002F081FB0121022002F023FB032200
:1007F0000121A34802F053F8022009908DF8280047
:1008000003208DF8290000208DF82A0001208DF8A2
:100810002B0009A99A4801F0B7FF42F2CF00ADF8CA
:1008200018000020ADF81A00C82007900020ADF88D
:10083000200006A9944803F0B2FB6020ADF8040044
:100840000120ADF8060000200390ADF81000042050
:10085000ADF808000820ADF812004001ADF8140012
:100860000020ADF8160001A9874803F0B3FC082169
:10087000854803F0CCFD0121834804F00AF80121EA
:10088000814803F0F7FB01217F4803F011FC0BB016
:1008900000BD10B504462146784803F072FD10BD36
:1008A00070B52DED048B06460D46764803F0C4FB6B
:1008B00000B2764948840846B0F92200002804DADC
:1008C0000846408C404200B2488400216D4803F045
:1008D000AFFB6E48B0F9220000EE100AB8EEC00A75
:1008E000DFED6B0A20EE200ADFED6A0A80EE201AA7
:1008F0006648C18B283000EB810080ED001A9FED27
:10090000669A00240BE06148283000EB840090EDEB
:10091000000A30EE090AB0EE409A601C44B2052C81
:10092000F1DBB1EE040AC9EE000A5848C0ED090A2D
:10093000C08B401C052190FBF1F201FB12005349D2
:10094000C883012D3FD10846C068B1F92210084480
:100950004E49C8600846D0ED040A90ED030AB8EE8F
:10096000400A70EEC09A4D48808900EE100AB8EE39
:10097000400A20EE290ADFED4A0A80EE201A0846D6
:1009800080ED061A90ED060AF7EE000AB4EEE00AD2
:10099000F1EE10FA03DDB7EE000A80ED060A3B48DF
:1009A00090ED060AD0ED090A70EE608AB1EE040AF5
:1009B00068EE800A3948008800EE100AB8EE400A56
:1009C00020EE808A12E0314890ED0F0AD0ED090A3E
:1009D00070EE608AB1EE040A68EE800A3148008841
:1009E00000EE100AB8EE400A20EE808AB5EEC08A0A
:1009F000F1EE10FA03D29FED280AB0EE408A9FED87
:100A00002A0AB4EEC08AF1EE10FA03DD9FED260A41
:100A1000B0EE408A1D4880ED108A5DBB2348007807
:100A2000012815D11948007F01280DD12048807C6C
:100A3000012809D1154991ED100ABCEEC00A10EE4B
:100A4000100AFFF726FF42E00020FFF722FF3EE0FA
:100A50000E48007F01282DD11548007A012829D1A0
:100A60000A4991ED100ABCEEC00A10EE100AFFF719
:100A700010FF2CE022E000000000024000000140D6
:100A8000000402400004004000040140080300206C
:100A90000000C842000002440000000004000020E2
:100AA00000007A441C00002000001644380000209A
:100AB000620300200020FFF7ECFE08E0414991EDC1
:100AC000100ABCEEC00A10EE100AFFF7E2FEBDEC01
:100AD000048B70BD10B53C48B0F848103B4803F09B
:100AE00050FC10BD10B53848B0F84A10374803F034
:100AF00048FC10BD00B95A20324991ED040ABCEE01
:100B0000C00A81ED030AD1ED040A00EE100AB8EE26
:100B1000400A30EE800A81ED040A704770B5044641
:100B20000D462E46274890ED040ABCEEC00A80ED23
:100B3000030AD0ED040A00EE104AB8EE400A30EE87
:100B4000800A80ED040A03E04FF47A70FFF7B6FBE9
:100B50003000A6F10101CEB2F6D170BD194890ED7A
:100B6000090ADFED1B0AB4EEE00AF1EE10FA05D235
:100B700018480068401C1749086002E00020154929
:100B80000860144800680A2806DB00201149086044
:100B900001200C4981F84400704710B50A48B0F8AC
:100BA000520020B949F27040FFF773FE08E0064892
:100BB000B0F85200012803D14FF4AF70FFF769FE7F
:100BC00010BD000008030020CCA80008000401406C
:100BD000CDCCCC3D3400002000B58BB001210846BF
:100BE00002F028F90121082002F06DF9022200210B
:100BF0006F4801F054FE022201216D4801F04FFEC2
:100C00000320099002208DF8280003208DF8290088
:100C100009A9674801F0B8FD5320ADF8180000207D
:100C2000ADF81A0040F6C41007900020ADF820007F
:100C300006A9604803F0B3F97020ADF80400012064
:100C4000ADF806000020ADF8080003900220ADF8D2
:100C500010000020ADF81200ADF814004FF48070C1
:100C6000ADF8160001A9534803F02EFA01A9514826
:100C700003F063FA08214F4803F0B3FB08214D4805
:100C800003F0B8FB01214B4803F0F4F90121494876
:100C900003F00EFA0BB000BD0146012901DB002074
:100CA00070470120FCE710B504462146414803F097
:100CB00064FB21463F4803F062FB10BD10B53E487F
:100CC0000078012814D13D480078012808D13C491A
:100CD000B1F85800FFF7E7FF0120384908771BE01B
:100CE0004FF47A70FFF7DFFF00203449087713E0F4
:100CF0003448407A012808D13149B1F85800FFF74B
:100D0000D2FF01202D49087706E04FF47A70FFF7F3
:100D1000CAFF00202949087710BD10B59FED2A0AA7
:100D2000264880ED0F0A6920244948610020FFF71A
:100D3000B0FD00202149C860002409E01F4890ED63
:100D40000F0A283000EB840080ED000A601CC4B25A
:100D5000052CF3DB10BD00B51A48C07C012815D165
:100D600016488068B8B115484068401C134948606F
:100D700008464068B0F57A7F0DDB0878FFF78CFFF6
:100D80000E49087000204860886004E000200B498C
:100D900048600120886000BD10B50A48407A0228EA
:100DA00002D1FFF79FFE01E0FFF794FE10BD0000A7
:100DB00000000240000C0040380000200803002022
:100DC000CCA80008620300209A99993F00B597B01B
:100DD0000121FE4802F02EF80121102002F084F8D3
:100DE00007221146FA4801F05AFD80201190022096
:100DF0008DF8480000208DF84A0003208DF8490046
:100E000000208DF84B0011A9F14801F0BDFCF1481C
:100E100001F002F9F04813900020ADF85000ADF851
:100E200052004FF48060ADF854000420ADF8560035
:100E30000020ADF8580013A9E64801F054F901224A
:100E40004021E44801F084FA25208DF8400000207C
:100E50008DF841008DF8420001208DF8430010A864
:100E600000F077FBDD4803F03FFE01A803F007FF29
:100E70004FF000600190D748001D0290D8480390C1
:100E8000002004901E200590002006904FF4806002
:100E900007900020089009904FF480700A904FF45A
:100EA00040300B9000200C900D900E900F9001A9F7
:100EB000CA4803F0BBFE0121C84803F0F1FE01223D
:100EC00040F22441C34801F04CFA0121C14801F02D
:100ED00092F917B000BD10B506F07AFCC14890ED4C
:100EE000070AC148C088A0F5806000EE900AF8EEBD
:100EF000E00A9FEDBE1A00EE810ABA4880ED040AAE
:100F000090ED040AF3EE070AB4EEE00AF1EE10FAEF
:100F100004DDB3EE070A80ED040A0DE0B14890ED60
:100F2000040AFAEE000AB4EEE00AF1EE10FA03D277
:100F3000BAEE000A80ED040AAA4890ED040A80ED9A
:100F4000070AAB4890ED070AA7488088C0F5806083
:100F500000EE900AF8EEE00A9FEDA61A00EE810A74
:100F6000A34880ED040A90ED040A80ED070A10BD45
:100F700010B52DED028B06F070FB9F4890ED020A34
:100F80009B4880ED020A9848B0F90C0000281ADD51
:100F9000974890ED020AF3EE040AB4EEE00AF1EE8F
:100FA00010FA2FD290ED070A8F48B0F90C0000EE2E
:100FB000900AF8EEE00A9FED911A00EE810A8C4843
:100FC00080ED040A1EE08848B0F90C00002819DA08
:100FD000874890ED020AFBEE040AB4EEE00AF1EE57
:100FE00010FA0FDD90ED070A7F48B0F90C0000EE13
:100FF000900AF8EEE00A9FED811A00EE810A7C4823
:1010000080ED040A7A4890ED040A80ED070A7548DD
:1010100090ED070A7448B0F90E0000EE900AF8EE61
:10102000E00A9FED771A00EEC10A6E4880ED040ACF
:1010300090ED040AF3EE070AB4EEE00AF1EE10FABE
:1010400004DDB3EE070A80ED040A0DE0654890ED7B
:10105000040AFAEE000AB4EEE00AF1EE10FA03D246
:10106000BAEE000A80ED040A5E4890ED040A80EDB5
:10107000070A5D48B0F90E00404200EE100AB8EED3
:10108000C00ADFED5F0A60EE208AF5EEC08AF1EE5D
:1010900010FA1FDD534890ED020AB3EE071A31EE45
:1010A000400AF0EE400AB0EE680A00F003F9B0EE34
:1010B000408AB5EEC08AF1EE10FA03D29FED510AD4
:1010C000B0EE408A474890ED070A30EE080A80EDFE
:1010D000040A23E0F5EEC08AF1EE10FA1ED2414870
:1010E00090ED020ABAEE001A31EE400AF0EE400A24
:1010F000B0EE680A00F0EBF8B0EE408AB5EEC08AB8
:10110000F1EE10FA03DD9FED3F0AB0EE408A35485C
:1011100090ED070A30EE080A80ED040A314890EDA0
:10112000040A80ED070ABDEC028B10BD10B540F239
:101130002441284801F050F9002846D0254800886D
:1011400024488088254803F0EEFD00283DD1002189
:10115000224803F0A5FD214803F0C5FDC0F11E00A3
:10116000294908601E201D4944390860081F00688D
:1011700040F40020091F08600121184803F090FD89
:1011800021480068122820D1154800781449497870
:1011900040EA0120C0F30A00134908801048407853
:1011A000C0100F49897840EA4110C0F30A000E4987
:1011B00048800B48807880110949C97840EA81004D
:1011C0000749097940EA812020E06CE002004000F4
:1011D0000004024000100140A08601008864024023
:1011E00050030020A0040020620300204260653B01
:1011F000C804002024977F3B20050020CDCC4C3D27
:101200008FC2F53C000000003C000020C0F30A0043
:10121000254988802548007940102449497940EAC9
:10122000C110C0F30A002049C8802048407900114D
:10123000800808721D484079C0F3011048721B48AD
:1012400080791A49C97940EA0120404200B2164922
:1012500088811648007A1549497A40EA012001B28E
:101260001148C1811148807A1049C97A40EA0120A9
:1012700001B20D4801820D48017B0B4881740B4877
:10128000417B0948C1740948807B0849C97B40EA11
:101290000120054988820648007810B1FFF768FEF2
:1012A00001E0FFF718FE10BD62030020500300208C
:1012B00038000020B0EE401AB4EEE01AF1EE10FA59
:1012C00002DDB0EE600A7047B0EE410AFBE7B0EE17
:1012D000401AB4EEE01AF1EE10FA02DDB0EE410A67
:1012E0007047B0EE600AFBE7F0EE401AB0EE602AFD
:1012F00010B9B0EE610A7047F4EEC21AF1EE10FABE
:1013000002DDF0EE420A09E0F4EEC11AF1EE10FA45
:1013100002D2F0EE410A01E0F0EE610AB0EE600A9E
:10132000E9E730B50446F0EE400A002014B9B0EE0B
:10133000600A30BD002028E0F5EEC00AF1EE10FA98
:1013400002DDB0EE600A01E0B1EE600A03EB800559
:1013500095ED011AB4EEC10AF1EE10FA13D2F5EED2
:10136000C00AF1EE10FA02DDB0EE600A01E0B1EE63
:10137000600A03EB800595ED001AB4EEC10AF1EEA8
:1013800010FA00DB04E0451CE8B24D1E8542D3DCB8
:1013900000BF02EB800595ED000A20EE200AC8E7A9
:1013A000F0EE402A10B9B0EE620A7047F5EEC02A9E
:1013B000F1EE10FA02DDB0EE620A01E0B1EE620A6F
:1013C000B4EEE00AF1EE10FA39DBF5EEC02AF1EEE8
:1013D00010FA02DDB0EE620A01E0B1EE620AB4EE8C
:1013E000C10AF1EE10FA2AD831EE600AB5EEC00A51
:1013F000F1EE10FA02DD31EE600A03E031EE600A30
:10140000B1EE400AB0EE404A32EEE00A80EE043A15
:1014100032EE610AB5EEC00AF1EE10FA02DD32EEEC
:10142000610A03E032EE610AB1EE400AF0EE403AA2
:10143000B0EE610A03EE230A20EE220AB5E722EE9F
:10144000220AB2E710B50121080701F03CFD012195
:10145000880401F0EFFC10BD70B504460D46012074
:1014600001F061FA002001F036FF2946204602F023
:10147000E6FB012001F02FFF002001F054FA70BDBF
:1014800010B50446204602F0E7FB10BD10B5012060
:1014900001F049FA002001F01EFF1E48006840F4E8
:1014A00080301C4908600846006820F480300860DD
:1014B000012001F010FF002001F035FA10BD10B539
:1014C000044615490868FFF7DBFF01B21348C186DF
:1014D00011494868FFF7D4FF01B2104801870E494F
:1014E0008868FFF7CDFF01B20C4841870CB1FFF7C8
:1014F000CDFF0A48C08E48B90848008F30B9074868
:10150000408F18B900200649087002E00120044904
:10151000087010BD70380240400000208803002091
:10152000900000200648804706480047FEE7FEE797
:10153000FEE7FEE7FEE7FEE7FEE7FEE7FEE7FEE783
:10154000472500088901000833490143334A1160E7
:10155000704770B5002100230F22C47824B32F4CAC
:10156000246804F4E064C4F5E064C4F30721C1F125
:101570000404E3B20A4144789C40E1B28478144008
:1015800021430C07210E264C05786155047804F0A0
:101590001F050124AC4005786D114FF0E02606EBE5
:1015A0008505C5F8004109E0047804F01F04012511
:1015B000A5401C4C0678761144F8265070BD1A4A96
:1015C0000A400243154B1B1F1A60704739B1134A7A
:1015D000121D12680243114B1B1D1A6006E00F4AD0
:1015E000121D126882430D4B1B1D1A6070470428A0
:1015F00008D14FF0E021096941F004014FF0E022E9
:10160000116107E04FF0E021096921F004014FF07A
:10161000E0221161704700000000FA050CED00E0C7
:1016200000E400E080E100E080FFFF1F10B5044609
:10163000FE48844209D10121480601F099FC0021AD
:101640004FF0007001F094FC08E00121880601F0E1
:101650008FFC00214FF0806001F08AFC10BD30B596
:10166000024600200023146824F002041460146869
:1016700044F00104146000E05B1C546814F0010F96
:1016800003D1A3F57F44FF3CF6D1546814F0010F59
:1016900001D100206CE08C79012C04D1146844F055
:1016A0008004146003E0146824F080041460CC7992
:1016B000012C04D1146844F04004146003E0146861
:1016C00024F0400414600C7A012C04D1146844F016
:1016D0002004146003E0146824F0200414604C7AA1
:1016E000012C04D1146844F01004146003E0146861
:1016F00024F0100414608C7A012C04D1146844F096
:101700000804146003E0146824F008041460CC7A20
:10171000012C04D1146844F00404146003E014683C
:1017200024F0040414608C78A407CD7844EA05649E
:101730000D7944EA05444D7944EA05540D886D1E3F
:101740002C43D461146824F001041460002300E0E9
:101750005B1C546814F0010F03D0A3F57F44FF3CD9
:10176000F6D1546814F0010F01D0002000E00120F0
:1017700030BD10B50021837A012202FA03F1AC4A90
:10178000126842F00102AA4B1A60A94A1C32126880
:101790008A43A74B1C331A60027BCAB9A44A0C3295
:1017A00012688A43A24B0C331A604288C38842EA0B
:1017B00003439F4A4032847A42F834300288838857
:1017C00042EA03439A4A4032847A02EBC4025360ED
:1017D000027B012A19D1964A0C3212680A43944BB3
:1017E0000C331A604288038842EA0343904A40322D
:1017F000847A42F83430C288838842EA03438C4AB0
:101800004032847A02EBC4025360C27A3AB9884A01
:10181000121D12688A43864B1B1D1A6006E0844A1B
:10182000121D12680A43824B1B1D1A60028932B9CD
:101830007F4A143212688A437D4B14331A6002893E
:10184000012A06D17A4A143212680A43784B1433BB
:101850001A60427B012A06D1754A1C3212680A437B
:10186000734B1C331A60724A126822F00102704BEB
:101870001A6010BD00218171C171017241728172C3
:10188000C1728170C1700321017102214171012176
:10189000018070476649096841F00101644A11609E
:1018A0001146096843F60E729143614A1160114670
:1018B000096841EA002111601146096821F001011F
:1018C0001160704721B1026842F48032026003E087
:1018D000026822F4803202607047E1B1026842F08F
:1018E000800202604FF4C272125842F480734FF4C7
:1018F000C27213504FF4CA72125842F480734FF4FC
:10190000CA7213504FF4D272125842F480734FF4DB
:10191000D27213501BE0026822F0800202604FF482
:10192000C272125822F480734FF4C27213504FF4F3
:10193000CA72125822F480734FF4CA7213504FF4D3
:10194000D272125822F480734FF4D272135070473F
:1019500010B502460020936803F08063B3F1806FF6
:1019600000D110E0936803F00063B3F1006F01D180
:10197000012008E0936803F08053B3F1805F01D148
:10198000022000E00420042879D002F5C07303EBA4
:1019900000131B6803F0010402F5C07303EB00138E
:1019A0001C600B7A7BB94B7A0C8843EA445302F5EE
:1019B000C07404EB00142468234302F5C07404EBE4
:1019C0000014236010E00B7A4C6843EAC4034C7A9D
:1019D000234302F5C07404EB00142468234302F58A
:1019E000C07404EB001423608B7A03F00F038B7236
:1019F00002F5C07303EB00135B6823F00F0402F5DC
:101A0000C07303EB00135C6002F5C07303EB0013BB
:101A10005B688C7A234302F5C07404EB00146360A6
:101A20008B7B1C064B7B44EA034403E000640040CC
:101A3000006600400B7B44EA0323CC7A234302F583
:101A4000C07404EB0014A3608B7C1C064B7C44EA3E
:101A500003440B7C44EA0323CC7B234302F5C0748C
:101A600004EB0014E36002F5C07303EB00131B6882
:101A700043F0010402F5C07303EB00131C6010BDBA
:101A800010B50246002321B1012907D002290FD148
:101A900009E09068F84C00EA04030BE09068F74C0A
:101AA00000EA040306E09068F54C00EA040301E054
:101AB000002300BF00BFF34C181BA34216D007DC65
:101AC00083B16FF0806018180ED0022818D111E091
:101AD000B0F5007F10D0EC4C001909D0B0F5003FF4
:101AE0000ED10BE002230DE000230BE0002309E000
:101AF000002307E0012305E0012303E0012301E0C7
:101B0000002300BF00BFD8B210BD21B1012907D00A
:101B100002290FD109E0826842F0800282600AE067
:101B2000826842F40042826005E0826842F400026A
:101B3000826000E000BF00BF704710B500F5D873A9
:101B400003EB01131B6803F004031372137A53B9F8
:101B500000F5D87303EB01131B6840F2FF7404EA2D
:101B60005353136009E000F5D87303EB01131B68AE
:101B70006FF0604404EAD303536000F5D87303EBBD
:101B800001131B6803F00203537200F5D87303EBD3
:101B900001135B6803F00F03937200F5D87303EB36
:101BA00001135B681B0AD37400F5D87303EB0113B0
:101BB0009B68D37200F5D87303EB01139B681C0A72
:101BC000147300F5D87303EB01139B681C0C54735A
:101BD00000F5D87303EB01139B681B0E937300F59C
:101BE000D87303EB0113DB68D37300F5D87303EBF1
:101BF0000113DB681C0A147400F5D87303EB01139E
:101C0000DB681C0C547400F5D87303EB0113DB681C
:101C10001B0E937421B9C36843F02003C36003E033
:101C2000036943F02003036110BD21B9C26842F08B
:101C30002002C26003E0026942F0200202617047A4
:101C40000246002019B9D36803F0030006E0012919
:101C500003D1136903F0030000E00020704710B5C2
:101C600002460B4600204FF6FF71BBB9146824F002
:101C7000020444F00104146000E0491E546804F0BA
:101C80000304012C01D00029F7D1546804F00304A7
:101C9000012C01D0002032E0012030E0012B13D1D3
:101CA000146824F00304146000E0491E546814F022
:101CB000030F01D00029F8D1546814F0030F01D0AC
:101CC00000201CE001201AE0022B17D1146824F038
:101CD000010444F00204146000E0491E546804F05A
:101CE0000304022C01D00029F7D1546804F0030446
:101CF000022C01D0002002E0012000E0002010BDF5
:101D0000014600200A6822F0010242F002020A6045
:101D10004A6802F00302022A00D1012070470146FE
:101D20004FF6FF7200200B6823F002030B6000E007
:101D3000521E4B6803F00203022B01D1002AF7D197
:101D40004B6803F00203022B00D0012070470146CC
:101D500000208A6902F070007047014600208A69FD
:101D6000100E7047014600208A69C2F30740704791
:101D70001AB143690B43436102E043698B434361FA
:101D8000704710B50246002011F4700F08D0936917
:101D9000C1F31304234201D001202DE000202BE0E9
:101DA00011F0807F08D05368C1F31304234201D09F
:101DB000012021E000201FE011F0006F08D093689F
:101DC000C1F31304234201D0012015E0002013E0E9
:101DD00011F0007F08D0D368C1F31304234201D06F
:101DE000012009E0002007E01369C1F31304234236
:101DF00001D0012000E0002010BD0022234B9942B9
:101E000002D10023836111E0C1F3130211F0007FBE
:101E100001D0C2600AE011F0806F01D0026105E0DC
:101E200011F0006F01D0826000E04260704702460E
:101E300000200A4201D0012000E00020704770B568
:101E400004460D4600266069284272D0B5F5807FB1
:101E500069D01DDC082D42D006DC012D2DD0022DCD
:101E600031D0042D7FD134E0102D3ED0202D42D032
:101E7000402D78D145E00000030000040003000875
:101E800000000310000100080001FFF77000F030AF
:101E9000B5F5004F61D009DCB5F5007F4AD0B5F546
:101EA000806F4DD0B5F5006F5DD150E0B5F5803F46
:101EB0002DD0B5F5003F56D12FE0A0685549FFF76A
:101EC000B6FF064651E0E0680321FFF7B0FF064683
:101ED0004BE0E0680821FFF7AAFF064645E0E0680E
:101EE0001021FFF7A4FF06463FE020690321FFF71A
:101EF0009EFF064639E020690821FFF798FF064655
:101F000033E020691021FFF792FF06462DE060685C
:101F10000821FFF78CFF064627E060681021FFF7D5
:101F200086FF064621E0A0690121FFF780FF0646F3
:101F30001BE01BE0A0690221FFF779FF064614E0D1
:101F4000A0690421FFF773FF06460EE00BE0A069CD
:101F50007021FFF76CFF064607E060680421FFF779
:101F600066FF064601E0002600BF00E0002630467E
:101F700070BDB1F5007F3AD00FDC202928D006DCF7
:101F800001291CD004291DD0082940D11DE0402979
:101F900021D0B1F5807F3AD126E0B1F5004F31D0A4
:101FA00006DCB1F5806F25D0B1F5006F2FD124E0AC
:101FB000B1F5803F12D0B1F5003F28D111E0154AAC
:101FC000826025E00822C26022E01022C2601FE089
:101FD000082202611CE01022026119E0082242601E
:101FE00016E01022426013E00422426010E0042256
:101FF00042600DE0042242600AE000228261042275
:10200000426005E0002282610422426000E000BFDD
:1020100000BF70470101010010B50446FA48844230
:1020200008D10121102000F0B4FF0021102000F0A1
:10203000B0FF57E0F548844209D10121480400F07F
:1020400097FF00214FF4003000F092FF4AE0F04883
:10205000844209D10121880400F08AFF00214FF455
:10206000802000F085FF3DE0EA48844209D101214B
:10207000C80400F07DFF00214FF4002000F078FF3D
:1020800030E0E548844209D10121080500F070FFE5
:1020900000214FF4801000F06BFF23E0DF48844202
:1020A00008D10121202000F074FF0021202000F041
:1020B00070FF17E0DA48844209D10121880700F057
:1020C00057FF00214FF0804000F052FF0AE0D54852
:1020D000844207D10121400500F04AFF002160053C
:1020E00000F046FF10BD2DE9FF4705460E460024CF
:1020F000A14600BFA046B08900B100BF2C8A24F4DD
:102100004054F08804432C82AC8941F20C60844333
:10211000B08831890843718908430443AC81AC8A93
:1021200024F44074B0890443AC82684600F0B1FDE9
:10213000B548854202D0B948854202D1DDF80C90FD
:1021400001E0DDF80890A88910F4004F08D009EBF1
:10215000C90000EB091031684900B0FBF1F707E056
:1021600009EBC90000EB091031688900B0FBF1F7F9
:102170006420B7FBF0F004012009642101FB107812
:10218000A88910F4004F08D0322000EBC800B0FB43
:10219000F1F000F00700044308E0322000EB0810E3
:1021A0006421B0FBF1F000F00F0004432C81BDE886
:1021B000FF874FF41651016000218180C1800181A9
:1021C0000C21418100218181704710B50246002019
:1021D000108A20F470600B884C8823438C8823433A
:1021E000CC8823431843108210BD00210180418018
:1021F0008180C180704721B1828942F4005282817E
:1022000004E082894DF6FF731A4082817047028B89
:1022100002F47F420283028B0A430283704721B19A
:10222000828942F40042828103E08289C2F30E0275
:102230008281704721B1828A42F40062828204E086
:10224000828A4FF2FF731A4082827047C1F30802FC
:102250008280704701468888C0F308007047028A70
:102260004FF6F0731A400282028A0A4302827047D4
:1022700021B1828942F00202828104E082894FF614
:10228000FD731A408281704782894FF2FF731A40B2
:10229000828182890A4382817047028A4FF6DF7306
:1022A0001A400282028A0A430282704721B1028ADE
:1022B00042F48042028204E0028A4BF6FF731A4025
:1022C00002827047818941F001018181704721B10B
:1022D000828A42F00802828204E0828A4FF6F77313
:1022E0001A4082827047028BD2B20283028B42EA8A
:1022F00001220283704721B1828A42F02002828249
:1023000004E0828A4FF6DF731A408282704721B15F
:10231000828A42F01002828204E0828A4FF6EF73D2
:102320001A4082827047828A4FF6FB731A4082827B
:10233000828A0A438282704721B1828A42F0020275
:10234000828204E0828A4FF6FD731A4082827047CF
:102350001AB1838A0B43838202E0838A8B43838290
:102360007047F0B503460024002600250020A1F5A3
:1023700010676A3F00D100BF1846C1F3421401F054
:102380001F06012707FA06F5012C01D10C3004E0E5
:10239000022C01D1103000E014301AB107682F432D
:1023A000076002E00768AF430760F0BD0246002007
:1023B000B1F5007F00D100BF13880B4201D001208E
:1023C00000E00020704701F40072B2F5007F00D1F8
:1023D00000BFCA430280704770B502460024002344
:1023E00000250020A1F510666A3E00D100BFC1F3B0
:1023F000421501F01F03012606FA03F3012D13D144
:102400009689334017E0000000100140004400406E
:1024100000480040004C00400050004000140140C3
:1024200000780040007C0040022D02D1168A334023
:1024300001E0968A33400C12012606FA04F416884D
:10244000344013B10CB1012000E0002070BD10B584
:1024500000220023A1F510646A3C00D100BF0A12DB
:1024600001249440A3B2DC43048010BD0CB50020CD
:10247000019000907648006840F48030744908600C
:1024800000BF7348006800F4003000900198401CC1
:102490000190009818B90198B0F5A04FF1D16C489F
:1024A000006810F4003F02D00120009001E00020FD
:1024B00000900098012845D165484030006840F000
:1024C00080506349403108606248006840F44040F1
:1024D000604908605E48083000685D49083108605E
:1024E0000846006840F4004008600846006840F470
:1024F000A05008605848091F0860081F006840F095
:102500008070091F086000BF5148006810F0007F0C
:10251000FAD040F20570514908604D480830006813
:1025200020F003004A49083108600846006840F07E
:102530000200086000BF46480830006800F00C0048
:102540000828F8D10CBD70B5012401254448006865
:1025500040F47000424908603D48006840F00100C6
:102560003B49086000203A49083108603848006853
:102570003C490840364908603B48091D0860081F6F
:10258000006820F48020091F0860002030490C31C9
:102590000860FFF76BFFE00631498039086070BDC5
:1025A00070B500200022022300240221284D0835A6
:1025B0002D6805F00C0020B1042806D0082834D17D
:1025C00007E02A4D2A4E356033E02A4D284E35600B
:1025D0002FE01F4D2D1D2D68C5F380541C4D2D1D62
:1025E0002D6805F03F0154B1224DB5FBF1F5184EB1
:1025F000361D3668C6F3881605FB06F209E01B4D4A
:10260000B5FBF1F5124E361D3668C6F3881605FB8C
:1026100006F20F4D2D1D2D68C5F301456D1C6B0095
:10262000B2FBF3F5124E356003E0104D104E3560ED
:1026300000BF00BF064D08352D68C5F303150E4ECB
:10264000705D0B4D2D68C540094E356070BD0000B2
:10265000003802400070004008544007003C02402F
:1026600088ED00E0FFFFF6FE103000240024F400A7
:102670009400002000127A009800002010B5044653
:102680009848844208D10121084600F03EFC002110
:10269000012000F03AFC76E09348844208D1012101
:1026A000022000F032FC0021022000F02EFC6AE043
:1026B0008E48844208D10121042000F026FC00212C
:1026C000042000F022FC5EE08948844208D1012108
:1026D000082000F01AFC0021082000F016FC52E04F
:1026E0008448844208D10121102000F00EFC002112
:1026F000102000F00AFC46E07F48844208D1012106
:10270000202000F002FC0021202000F0FEFB3AE037
:102710007A48844208D10121402000F0F6FB0021D4
:10272000402000F0F2FB2EE07548844208D10121E0
:10273000802000F0EAFB0021802000F0E6FB22E090
:102740007048844208D10121801500F0DEFB002191
:10275000A01500F0DAFB16E06B48844208D1012195
:10276000401500F0D2FB0021601500F0CEFB0AE01E
:102770006648844207D10121001500F0C6FB002104
:10278000201500F0C2FB10BDF0B50A460021002361
:10279000002400BF3DE0012505FA01F3156805EAB4
:1027A00003049C4234D105684F000326BE40B54364
:1027B000056015794E00B54006683543056015790A
:1027C000012D02D01579022D16D185684F00032600
:1027D000BE40B543856055794E00B54086683543A7
:1027E0008560456801268E40B54345604568967909
:1027F0008E40B6B235434560C5684F000326BE40E3
:10280000B543C560D5794E00B540C6683543C5604F
:10281000491C1029BFD3F0BD4FF6FF7101600021A4
:10282000017141718171C171704708B54FF48032F7
:102830000092009A0A430092009AC261C161009A14
:10284000C261C2690092C269009208BD02460020BE
:1028500013690B4201D0012000E0002070470146BF
:10286000086980B270470246002053690B4201D0CC
:10287000012000E0002070470146486980B270479F
:1028800001837047418370470AB1018300E04183AF
:1028900070474161704742694A4042617047F0B5F4
:1028A000002300244D07ED0E02FA05F3CE1000F1CF
:1028B000200555F826504E07F70E0F26BE40B543AB
:1028C000CF1000F1200646F82750CE1000F1200569
:1028D00055F8265045EA0304CE1000F1200545F8CE
:1028E0002640F0BD00000240000402400008024003
:1028F000000C024000100240001402400018024088
:10290000001C024000200240002402400028024037
:1029100010B50121080700F02BFB00214FF080507B
:1029200000F026FB10BD51490862704701460020A7
:102930004F4A106820F0E0000843106070474B4990
:10294000086170474B49086070474B490860704701
:1029500001460020464A106820F4404008431060B9
:10296000704742490864704740494864704730B135
:102970003F49096841F440213D4A116005E03C4966
:10298000096821F440213A4A1160704718B10121C9
:10299000364AD16202E00021344AD162704718B150
:1029A0000121324A916202E00021304A916270476F
:1029B0002E494862704710B5024600202C4B18681B
:1029C00040F6034398431043294B18602B4B1B6878
:1029D00043F00403294C2360012901D130BF00E0FA
:1029E00020BF264B1B6823F00403244C236010BD3A
:1029F00010B5024600201E4B186840F6034398436A
:102A000010431B4B18601D4B1B6843F004031B4C09
:102A10002360012901D130BF00E020BF174B1B68A4
:102A200023F00403154C236010BD1148006840F0EA
:102A300002000F4908601148006840F004000F4987
:102A4000086000BF00BF30BF704701460020084A41
:102A500052680A4201D0012000E00020704704497A
:102A6000096841EA8001024A1160704700000E4285
:102A700000700040A0000E42A4000E4210ED00E0E5
:102A8000F948006840F00100F74908600020F64965
:102A900008310860F4480068F4490840F2490860C9
:102AA000F348091D0860F348EF4984310860F04895
:102AB0001038091D0860EC48006820F48020EA49BD
:102AC00008600020E8490C310860E7498C31086053
:102AD00070470021E44A921C11701146087070473B
:102AE00010B501460022002300204A11012A02D11C
:102AF000DD4C236808E0022A03D1DB4C70342368E4
:102B000002E0D94C7434236801F01F020124944080
:102B10001C4201D0012000E0002010BD38B500208B
:102B200000900024002500BF3120FFF7D9FF0546A3
:102B30000098401C00900098B0F5A04F01D0002DE7
:102B4000F2D03120FFF7CCFF08B1012400E00024CF
:102B5000204638BD01460020C34A106820F0F80026
:102B600040EAC10010607047C34908607047002107
:102B7000BD4A703211701170012802D004280AD1A8
:102B800004E00121B84A7032117005E00521B64A0F
:102B90007032117000E000BF00BF7047B749086095
:102BA000704770B5049C41EA82150126C6EB5306B6
:102BB00045EA0645054345EA0465AB4E361D3560DA
:102BC00070BDAD4908667047820142EA0172A64BAA
:102BD00084331A607047A8498866704710B583012E
:102BE00043EA016343EA02739F4C8834236010BDBB
:102BF000A14908677047A049C86470470246002091
:102C0000994B0833186820F0EC6042EA010318433E
:102C1000954B08331860704702460020924B0833EA
:102C2000186820F0784042EA010318438E4B0833BD
:102C300018607047014600208B4A0832106820F067
:102C4000030008431060704787480830006800F0B0
:102C50000C00704701460020834A0832106820F0BB
:102C6000F000084310607047014600207E4A083299
:102C7000106820F4E05008431060704701460020BF
:102C8000794A0832106820F4604040EAC1001060C0
:102C90007047F0B5002100220024022500260223FF
:102CA000714F08373F6807F00C0121B1042905D0A6
:102CB000082937D105E0724F076036E0714F076091
:102CC00033E0694F3F1D3F68C7F38056664F3F1D95
:102CD0003F6807F03F036EB16A4FB7FBF3F7DFF8C9
:102CE00088C10CF1040CDCF800C0CCF3881C07FB95
:102CF0000CF40CE0624FB7FBF3F7DFF86CC10CF19A
:102D0000040CDCF800C0CCF3881C07FB0CF4564F15
:102D10003F1D3F68C7F301477F1C7D00B4FBF5F7FB
:102D2000076002E0564F076000BF00BF4E4F0837F4
:102D30003F6807F0F0010909534F7A5C0768D740F4
:102D40004760494F08373F6807F4E051890A4E4F02
:102D50007A5C4768D7408760434F08373F6807F47D
:102D60006041490B484F7A5C4768D740C760F0BD67
:102D7000002100F44072B2F5407F0AD13A4A08328D
:102D8000116821F4F811414A02401143364A0832D1
:102D90001160354A70321268C0F30B031A43324B8C
:102DA00070331A60704735494439086070473349B9
:102DB0004039086070473649086070470146002076
:102DC000294A8C32106820F01F004A1E1043264A00
:102DD0008C321060704701460020234A8C32106804
:102DE00020F4F8504A1E40EA02201F4A8C3210603C
:102DF0007047014600201C4A8C32106820F44010B5
:102E000008431060704701460020174A8C32106852
:102E100020F4400008431060704701460020124A29
:102E20008C32106820F44030084310607047194914
:102E30000860704739B10C4A3032126802430A4BBD
:102E400030331A6006E0084A303212688243064B7B
:102E500030331A607047F9B1034A343212680243C2
:102E6000014B34331A601CE000380240FFFFF6EAE1
:102E7000103000240030002000004742800E4742FE
:102E80000024F40000127A00A8000020FFFCFF0FCD
:102E90005C014742E01147428F4A126882438E4BE1
:102EA0001A60704739B18C4A121D126802438A4B6E
:102EB0001B1D1A6006E0884A121D12688243864B69
:102EC0001B1D1A60704739B1834A0C3212680243E5
:102ED000814B0C331A6006E07F4A0C321268824341
:102EE0007D4B0C331A60704739B17B4A103212683F
:102EF0000243794B10331A6006E0774A10321268A9
:102F00008243754B10331A60704739B1724A243AC4
:102F100012680243704B243B1A6006E06E4A243A62
:102F2000126882436C4B243B1A60704739B16A4A7D
:102F3000203A12680243684B203B1A6006E0664A5A
:102F4000203A12688243644B203B1A60704739B1C3
:102F5000614A1C3A126802435F4B1C3B1A6006E050
:102F60005D4A1C3A126882435B4B1C3B1A607047F7
:102F700039B1594A143A12680243574B143B1A604C
:102F800006E0554A143A12688243534B143B1A60C8
:102F9000704739B1504A103A126802434E4B103B09
:102FA0001A6006E04C4A103A126882434A4B103BC2
:102FB0001A60704739B1484A1C3212680243464BC6
:102FC0001C331A6006E0444A1C3212688243424BAA
:102FD0001C331A60704739B13F4A203212680243ED
:102FE0003D4B20331A6006E03B4A20321268824390
:102FF000394B20331A60704739B1374A243212688E
:103000000243354B24331A6006E0334A24321268F7
:103010008243314B24331A60704739B12E4A2C3227
:10302000126802432C4B2C331A6006E02A4A2C32D9
:1030300012688243284B2C331A60704739B1264AF4
:10304000303212680243244B30331A6006E0224AC1
:10305000303212688243204B30331A6070470128A7
:1030600008D11D493C31096841F008011A4A3C3237
:10307000116007E018493C31096821F00801164A3F
:103080003C321160704739B1134A273A1278024333
:10309000114B273B1A7006E00F4A273A12788243F9
:1030A0000D4B273B1A7070470B484030006840F0CA
:1030B0008070094940310860704701460020064A87
:1030C000283A12680A4201D0012000E0002070472F
:1030D00001492639087070473438024008B500228B
:1030E000009200200021CA22F94B1A6053221A6074
:1030F000F74A183A126822F0A002F54B183B1A6002
:1031000000BFF34A183A126802F02001009A521CDC
:103110000092009AB2F5003F01D00029F1D0EC4AAC
:10312000183A126812F0200F01D0012000E00020B0
:10313000FF22E74B1A6008BD08B50022009200206C
:103140000021E34A183A126812F0400F1CD1421EC7
:10315000DF4B183B1A6000BFDD4A183A126802F0D4
:103160004001009A521C0092009AB2F5803F01D0B3
:103170000029F1D0D64A183A126812F0400F01D057
:10318000012002E0002000E0012008BD38B5002049
:10319000009000240025CA20CD4908605320086013
:1031A000FFF7CAFF00B952E00020C949243908607E
:1031B00042F20110091D0860081D006800F00700B8
:1031C000091D086000BFC2481838006800F00404F8
:1031D0000098401C00900098B0F5803F01D0002C72
:1031E000F1D0BB481838006810F0040F01D1002559
:1031F0002DE0B7481C3800680020B5491C3908602C
:103200004FF6FF70B24910390860B248091F0860D4
:103210000020AF490C390860091D0860091D0860CD
:10322000AB4908310860AA4918310860A849203123
:103230000860091D0860A64918390860A4491C31B6
:103240000860FFF74BFF08B9002500E00125FF20CB
:103250009F490860284638BD9D481838006820F00E
:1032600080009B4918390860704730B50446002536
:10327000CA209749086053200860FFF75DFF00B936
:103280001DE093481C38006820F0400090491C392C
:10329000086008460068216808438D491C390860A9
:1032A0008B491439A068086008460068A18840EA84
:1032B0000140874914390860FFF7CEFF0125FF2040
:1032C00083490860284630BD002101607F214160AC
:1032D000FF218160704718B1FF217D4A116004E031
:1032E000CA217B4A116053211160704730B50446F2
:1032F0000025CA207649086053200860FFF71CFFAC
:1033000000B914E044B172481C38006840F0100065
:103310006F491C39086007E06D481C38006820F0D0
:1033200010006B491C390860FFF796FF0125FF204C
:1033300067490860284630BDCA21654A116053219B
:10334000116040B162491C39096841F02001604AAE
:103350001C3A116007E05E491C39096801F0DF0181
:103360005B4A1C3A1160FF21594A116070470146BF
:10337000002204E0501CC2B2A1F10A00C1B20A2925
:10338000F8DA100741EA10607047014600BF0809EB
:1033900000EB8000420001F00F001044C0B2704703
:1033A0002DE9F04105460C460026002755B948484E
:1033B0001C38006810F0400F00D002E00020E070E0
:1033C00000BF0EE042481C38006810F0400F04D0E7
:1033D0002078FFF7DAFF064602E00020E07000BF29
:1033E00000BF55B120780004617840EA0120A1783F
:1033F0000843E17840EA014611E02078FFF7B7FF83
:103400004FEA00486078FFF7B2FF48EA0028A0784A
:10341000FFF7ADFF48EA0008E07848EA0046CA2016
:103420002B49086053200860FFF786FE08B9002783
:1034300014E029483040264924390860FFF70CFF82
:1034400023481C38006810F0200F06D1FFF746FE15
:1034500008B9002702E0012700E00127FF201C49EE
:1034600008603846BDE8F0810021C17001704170EC
:103470008170704770B506460C4600251448243804
:103480000068154900EA0105C5F305402070C5F341
:103490000620607005F07F00A07005F48000000C2D
:1034A000E0705EB92078FFF770FF20706078FFF75A
:1034B0006CFF6070A078FFF768FFA07070BD0020FF
:1034C0000349091D0868024920390968704700004E
:1034D00024280040FF007F007F7F7F002DE9F0411E
:1034E00005460C46002600274DB9607800F0100014
:1034F000102804D1607820F010000A30607005B9FF
:1035000008E06078FFF741FF0646A078FFF73DFF2F
:10351000064600BF55B1E0780004617840EA01201A
:10352000A1780843217840EA413611E0E078FFF7BE
:103530001EFF4FEA00486078FFF719FF48EA0028AD
:10354000A078FFF714FF48EA0008207848EA4036E0
:10355000CA20FE49086053200860FFF7EDFD08B956
:10356000002714E0FA483040F84920390860FFF796
:1035700073FEF6481C38006810F0200F06D1FFF7E4
:10358000ADFD08B9002702E0012700E00127FF2078
:10359000EE4908603846BDE8F08101210170817074
:1035A00041700021C170704770B506460C46002579
:1035B000E64820380068E64900EA0105280CE0707A
:1035C000C5F30420607005F03F00A070C5F34230E1
:1035D00020705EB9E078FFF7D8FEE0706078FFF702
:1035E000D4FE6070A078FFF7D0FEA07070BD2DE90A
:1035F000F04105460E46144600276DB9D3481C38E5
:10360000006810F0400F00D002E00020E07000BF22
:10361000A06800B91AE019E0CC481C38006810F026
:10362000400F04D02078FFF7B0FE074602E00020EC
:10363000E07000BFA06820B9207BFFF7A6FE074618
:1036400004E0207BFFF7A1FE074600BF95B120787C
:103650000004617840EA0120A1780843E17840EA5B
:103660000140217B40EA0160A1680843616840EAAB
:1036700001071BE02078FFF77AFE4FEA00486078E8
:10368000FFF775FE48EA0028A078FFF770FE48EAC9
:103690000008E07848EA0048207BFFF768FE48EA27
:1036A0000060A1680843616840EA0107CA20A74991
:1036B000086053200860B6F5807F03D1A34808381E
:1036C000076002E0A148001F0760FF209F490860D3
:1036D000BDE8F0810021C17001704170817081608E
:1036E000012101730021416070472DE9F041064638
:1036F0000F4614460025B7F5807F03D1934808385C
:10370000056802E09148001F0568C5F30540207078
:10371000C5F30620607005F07F00A07005F48000FE
:10372000000CE070C5F30560207305F08040A060D8
:1037300005F0803060607EB92078FFF726FE2070AB
:103740006078FFF722FE6070A078FFF71EFEA07081
:10375000207BFFF71AFE2073BDE8F08138B50246E2
:103760000024009400230020CA24784D2C605324A8
:103770002C6041B1754C1C3C24681443734D1C3DB6
:103780002C6001201EE0714C1C3C246894436F4D5A
:103790001C3D2C6000BF6D4C183C246804EA1223C9
:1037A000009C641C0094009CB4F5803F01D0002B69
:1037B000F1D0664C183C246814EA122F01D1002085
:1037C00000E00120FF24614D2C6038BD30B500239E
:1037D000CA245E4D2C6053242C6041EA0203B0F5EC
:1037E000807F03D1594C2034236002E0574C2434AD
:1037F0002360FF24554D2C6030BD01460020B1F5FB
:10380000807F05D1514A20321268C2F30E0004E0D5
:103810004E4A24321268C2F30E007047CA214B4A46
:1038200011605321116049491C39096821F00701D1
:10383000464A1C3A11601146096801431160FF2194
:10384000424A11607047CA21404A116053211160F9
:103850003E4910390860FF21116070473B4810381D
:10386000006880B2704718B501460023009300221B
:103870000020CA23354C23605323236049B1334BC6
:103880001C3B1B6843F48063304C1C3C23600120CC
:103890001FE02E4B1C3B1B6823F480632B4C1C3C0D
:1038A000236000BF294B183B1B6803F00402009BF8
:1038B0005B1C0093009BB3F5803F01D0002AF1D040
:1038C000224B183B1B6813F0040F01D1002000E0CD
:1038D0000120FF231D4C236018BDCA221B4B1A6018
:1038E00053221A60194A1C3A126822F48022174B9C
:1038F0001C3B1A601A46126840EA01031A43134B34
:103900001C3B1A60FF22114B1A6070470F481C388D
:10391000006800F480207047CA220C4B1A605322C2
:103920001A600A4A1C3A126822F4E002074B1C3B58
:103930001A601A46126840EA01031A43034B1C3B03
:103940001A60FF22014B1A607047000024280040D3
:103950003FFFFF0070B504460D460026CA20F64919
:10396000086053200860FFF7E7FB00B907E044EA6E
:103970000500F1490C390860FFF76EFC0126FF20B5
:10398000ED490860304670BD30B504460025CA20B8
:10399000E949086053200860FFF7CEFB00B914E046
:1039A00044B1E5481C38006840F08000E2491C3909
:1039B000086007E0E0481C38006820F08000DE491D
:1039C0001C390860FFF748FC0125FF20DA49086030
:1039D000284630BDCA21D84A11605321116040B138
:1039E000D5491C39096841F40001D34A1C3A1160D9
:1039F00007E0D1491C39096821F40001CE4A1C3A7C
:103A00001160FF21CC4A11607047CA21CA4A116077
:103A100053211160C8491C39096821F40021C64AA4
:103A20001C3A11601146096801431160FF21C24A26
:103A30001160704770B5034600200024CA25BE4EB1
:103A4000356053253560BC4D183D2D6815F4803F19
:103A50000AD000E0641CB84D183D2D6815F4803F75
:103A600002D0B4F5003FF5D1B34D183D2D6815F4E3
:103A7000803F07D143EA01051543AF4E1836356044
:103A8000012000E00020FF25AB4E356070BD10B571
:103A90000A460021A84B1C3B1B6840F6080423EA99
:103AA00004011AB140F40063194300E00143CA2342
:103AB000A14C2360532323609F4B1C3B1960FF23C1
:103AC000236010BD2DE9F04180460C4615460026C6
:103AD000002799480C300068984900EA010696488A
:103AE00010300068964900EA0107C6F305402070CF
:103AF000C6F30620607006F07F00A07006F4800018
:103B0000000CE0700020E870C7F30420687007F034
:103B10003F00A870C7F342302870B8F1000F17D1EA
:103B20002078FFF732FC20706078FFF72EFC607081
:103B3000A078FFF72AFCA0706878FFF726FC687071
:103B4000A878FFF722FCA8702878FFF71EFC2870E1
:103B5000BDE8F081784814300068704741B9764A72
:103B60001C32126822EA4002734B1C331A6007E0D1
:103B7000714A1C32126842EA40026F4B1C331A60D1
:103B8000704739B16C4A1C32126802436A4B1C33CD
:103B90001A6006E0684A1C3212688243664B1C3386
:103BA0001A60704764491C31096821F4C051624AA7
:103BB0001C321160114609680143116070475E496B
:103BC0001C31096821F4E0615B4A1C321160114626
:103BD000096801431160704757491C31096821F495
:103BE000C041554A1C3211601146096801431160F9
:103BF000704740B150491C31096841F080014E4A7C
:103C00001C32116007E04C491C31096821F0800129
:103C1000494A1C321160704740B147491C3109685C
:103C200021F40041444A1C32116007E042491C3132
:103C3000096841F40041404A1C321160704708B5E0
:103C4000002200923C4A2C320092009A02EB800241
:103C50000092009A116008BD08B50146002000904E
:103C600035482C300090009800EB810000900098BF
:103C7000006808BD30491C31096821F480312E4AA2
:103C80001C321160114609680143116070472A49CE
:103C90001C31096821F40031274A1C321160114699
:103CA000096801431160704723491C31096821F4F8
:103CB0008021214A1C3211601146096801431160BC
:103CC0007047F0B504460D4600270026CA201A4961
:103CD00008605320086018481838006810F0080F72
:103CE0000AD000E0761C14481838006810F0080F5D
:103CF00002D0B6F5805FF5D10F481838006810F093
:103D0000080F13D10C481C38006810F0100F0BD1AD
:103D100045EA0400084908310860FFF7DFF908B9EF
:103D2000002704E0012702E0002700E00027FF2031
:103D3000014908603846F0BD242800407F7F7F009D
:103D40003FFFFF00CA223D4B1A6053221A6091B117
:103D50003A4A1C3A126820F004031A43374B1C3BC2
:103D60001A60364A1C32126800F004031A43334BBF
:103D70001C331A6011E0314A1C3A126820F0040327
:103D80009A432E4B1C3B1A602C4A1C32126800F0DE
:103D900004039A43294B1C331A60FF22274B1A60F5
:103DA000704710B5014600200022244B183B1B68C9
:103DB000234C03EA04020A4201D0012000E0002063
:103DC00010BD81B241F080011C4A183A126802F01D
:103DD000800262EA0101194A183A1160704730B551
:103DE0000146002000220023144C1C34246804F0F7
:103DF0000402124C1C3C24680C4002EAD13544EA0F
:103E000005030E4C183C246804EA111223B1140473
:103E1000240C01D0012000E0002030BD0021010968
:103E20008AB242F08002054B183B1B6803F0800306
:103E300063EA0202014B183B1A60704724280040D5
:103E40007F3F010010B50446FE48844208D101219D
:103E50000846FFF79EF800210120FFF79AF89DE041
:103E6000B4F1804F08D101210846FFF781F8002105
:103E70000120FFF77DF891E0F348844208D1012149
:103E80000220FFF775F800210220FFF771F885E0A6
:103E9000EE48844208D101210420FFF769F800218F
:103EA0000420FFF765F879E0E948844208D1012150
:103EB0000820FFF75DF800210820FFF759F86DE0B2
:103EC000E448844208D101211020FFF751F8002175
:103ED0001020FFF74DF861E0DF48844208D101214E
:103EE0002020FFF745F800212020FFF741F855E09A
:103EF000DA48844208D101210220FFF74AF8002164
:103F00000220FFF746F849E0D548844209D1012153
:103F10000804FFF73EF800214FF48030FFF739F82E
:103F20003CE0D048844209D101214804FFF731F830
:103F300000214FF40030FFF72CF82FE0CA488442EC
:103F400009D101218804FFF724F800214FF48020D3
:103F5000FFF71FF822E0C548844208D10121402024
:103F6000FFF706F800214020FFF702F816E0C048EE
:103F7000844208D101218020FEF7FAFF0021802031
:103F8000FEF7F6FF0AE0BB48844207D10121801505
:103F9000FEF7EEFF0021A015FEF7EAFF10BD00229C
:103FA0000288A84B98420ED0AC4B98420BD0B0F18F
:103FB000804F08D0A44B984205D0A44B984202D021
:103FC000A34B984204D14FF68F731A404B881A4383
:103FD000A04B984207D0A04B984204D04FF6FF4325
:103FE0001A400B891A4302804B68C3620B88038511
:103FF000944B984202D0994B984201D18B7A038618
:104000000123838270474FF0FF314160002101801E
:1040100001814180817270470185828270470A4622
:10402000002101884FF68F731940114301807047BA
:1040300041627047C16270470146486A7047014655
:10404000088D704721B1028842F00202028004E02C
:1040500002884FF6FD731A400280704721B1028832
:1040600042F00402028004E002884FF6FB731A401B
:104070000280704721B1028842F08002028004E091
:1040800002884FF67F731A400280704702884FF60D
:10409000F7731A40028002880A4302807047028840
:1040A0004FF6FF431A40028002880A43028070479D
:1040B00021B1028842F00102028004E002884FF63A
:1040C000FE731A400280704770B50024002200235E
:1040D000058C4FF6FE7635400584028C8388048B70
:1040E0004FF68F752C40B51E2C400D882C43751E45
:1040F0002A408D892A434D882A43524DA84202D036
:10410000564DA84213D14FF6F7752A40CD892A4360
:104110004FF6FB752A408D882A434FF6FF652B40EA
:104120004FF6FF552B400D8A2B434D8A2B4383803E
:1041300004838D684563028470BD70B5002400223D
:104140000023058C4FF6EF7635400584028C83887A
:10415000048B48F6FF752C404FF6FF452C400D8828
:104160004FF6FF7606EA05252C434FF6DF752A4009
:104170008D8906EA05152A434D8806EA05152A4366
:10418000304DA84202D0354DA8421DD14FF67F7563
:104190002A40CD894FF6FF7606EA05152A434FF6E9
:1041A000BF752A408D8806EA05152A434FF6FF356C
:1041B0002B404FF2FF752B400D8A06EA85052B43F5
:1041C0004D8A06EA85052B43838004838D688563C9
:1041D000028470BD70B5002400220023058C4FF6C8
:1041E000FF6635400584028C8388848B4FF68F757B
:1041F0002C404FF6FC752C400D882C434FF6FF5594
:104200002A408D894FF6FF7606EA05252A434D8818
:1042100006EA05252A430B4DA84202D00F4DA842BD
:1042200038D14FF2FF752A40CD894FF6FF7606EA66
:1042300005252A434FF6FF352A408D8806EA0525D5
:104240002A4319E00000014000040040000800403B
:10425000000C004000100040001400400004014029
:104260000040014000440140004801400018004067
:10427000001C0040002000404EF6FF752B404DF61C
:10428000FF752B400D8A06EA05152B434D8A06EA79
:1042900005152B43838084838D68C563028470BDBC
:1042A00070B5002200230024058C4EF6FF763540C1
:1042B0000584038C8488828B48F6FF752A404FF66C
:1042C000FF452A400D884FF6FF7606EA05252A436A
:1042D0004DF6FF752B408D8906EA05352B434D8839
:1042E00006EA05352B43FE4DA84202D0FD4DA842FB
:1042F00008D14BF6FF752C400D8A4FF6FF7606EA83
:1043000085152C43848082838D680564038470BD89
:10431000002101804180818081608181C181018291
:104320004182704770B503460020002418461830BB
:1043300001258D40ACB21D8CA5431D8409B108290F
:104340000AD100EB610005684FF68F7635400560B5
:104350000568154305600FE00D1FC5F34E052844A1
:10436000056848F6FF763540056005684FF6FF762C
:1043700006EA02263543056070BD416370478163DC
:104380007047C1637047016470470A460021018B82
:104390004FF68F7319401143018370470A4600217D
:1043A000018B48F6FF7319404FF6FF7303EA0223AF
:1043B0001943018370470A460021818B4FF68F73A2
:1043C00019401143818370470A460021818B48F6CA
:1043D000FF7319404FF6FF7303EA022319438183E9
:1043E00070470A460021018B4FF6F77319401143BD
:1043F000018370470A460021018B4FF2FF73194079
:104400004FF6FF7303EA02231943018370470A46FC
:104410000021818B4FF6F773194011438183704758
:104420000A460021818B4FF2FF7319404FF6FF734C
:1044300003EA02231943818370470A460021018B56
:104440004FF6FB7319401143018370470A46002160
:10445000018B4FF6FF3319404FF6FF7303EA022337
:104460001943018370470A460021818B4FF6FB7385
:1044700019401143818370470A460021818B4FF612
:10448000FF3319404FF6FF7303EA02231943818378
:1044900070470A460021018B4FF67F731940114384
:1044A000018370470A460021018BC1F30E014FF6CC
:1044B000FF7303EA02231943018370470A46002170
:1044C000818B4FF67F7319401143818370470A46F1
:1044D0000021818BC1F30E014FF6FF7303EA022323
:1044E0001943818370470A460021018C4FF6FD7302
:1044F00019401143018470470A460021018C4FF690
:10450000F77319401143018470470A460021018C5A
:104510004FF6DF7319404FF6FF7303EA0213194396
:10452000018470470A460021018C4FF67F731940C1
:104530004FF6FF7303EA02131943018470470A46DA
:104540000021018C4FF6FF5319404FF6FF7303EA29
:1045500002231943018470470A460021018C4FF25F
:10456000FF7319404FF6FF7303EA022319430184D6
:1045700070470A460021018C4DF6FF7319404FF633
:10458000FF7303EA023319430184704730B50023F7
:1045900001248C40A3B2048C9C430484048C02FA52
:1045A00001F5ADB22C43048430BD30B500230424A2
:1045B0008C40A3B2048C9C430484048C02FA01F561
:1045C000ADB22C43048430BD828B4FF2FF331A40CE
:1045D0008283828B4FF6FF7303EA01231A4382839F
:1045E0007047F0B50C461546002100220026078CC6
:1045F0004EF6FF7C07EA0C070784818B028C4FF68E
:10460000FF7707EA043640F6FF4739404FF6FF7759
:1046100007EA052739434FF6FF7707EA033739439F
:1046200045F6FF773A4046F480573A438183028447
:10463000F0BD828B4FF6F3731A408283828B0A435C
:1046400082837047F0B50C461546002100220026F3
:10465000078C4FF6FF6C07EA0C070784818B028CEE
:104660004FF6FF7707EA04264FF60C7739404FF6EE
:10467000FF7707EA03172F4339434FF2FF573A40BA
:1046800046F480773A4381830284F0BD028B4FF277
:10469000FF331A400283028B4FF6FF7303EA0123B4
:1046A0001A4302837047F0B50C46154600210022DC
:1046B0000026078C4FF6EF7C07EA0C070784018B76
:1046C000028C4FF6FF7707EA041640F6FF473940A1
:1046D0004FF6FF7707EA033739434FF6FF7703E0DA
:1046E000000001400004014007EA052739434FF666
:1046F0005F773A4046F010073A4301830284F0BDE9
:10470000028B4FF6F3731A400283028B0A43028333
:104710007047F0B50C46154600210022068C4FF676
:10472000FE773E400684018B028C4FF60C763140BA
:104730007E1C06EA03162E4331434FF6F5763240CF
:1047400044F00106324301830284F0BD70B5054692
:104750000C46208850B92389A28861882846FFF733
:10476000D8FFE1882846FFF7CBFF25E02088042802
:104770000AD12389A28861882846FFF794FFE1883F
:104780002846FFF783FF17E0208808280AD12389ED
:10479000A28861882846FFF755FFE1882846FFF781
:1047A00048FF09E02389A28861882846FFF719FF9E
:1047B000E1882846FFF708FF70BD00210180418095
:1047C000012181800021C180018170472DE9F041E4
:1047D00005460C4600260127608808B9022600E03D
:1047E0000026A088012801D1022700E001272088A7
:1047F000A0B92389A28861882846FFF78AFFE1884B
:104800002846FFF77DFF23893A4631462846FFF7C1
:104810004AFFE1882846FFF739FF13E02389A28881
:1048200061882846FFF73FFFE1882846FFF72EFF03
:1048300023893A4631462846FFF76BFFE188284630
:10484000FFF75EFFBDE8F0810146486B7047014607
:10485000886B70470146C86B70470146086C70470B
:104860000A884B881A438B881A43CB881A430B89D2
:104870001A434B891A438B891A43A0F84420704786
:104880000021018041808180C1800181418181813D
:10489000704731B1B0F8442042F40042A0F84420FF
:1048A00005E0B0F84420C2F30E02A0F8442070479F
:1048B00021B1828842F00402828004E082884FF6AF
:1048C000FB731A408280704721B1828842F0010256
:1048D000828004E082884FF6FE731A40828070471F
:1048E0001AB183890B43838102E083898B438381DF
:1048F00070478182704702460020138A0B4201D024
:10490000012000E000207047CA430282704730B5A2
:104910000246002000230024158A05EA0103958938
:1049200005EA010413B10CB1012000E0002030BD04
:10493000CA430282704741EA0203A0F84830704738
:104940001AB183890B43838102E083898B4383817E
:10495000704721B1828842F00802828004E0828898
:104960004FF6F7731A408280704701894FF6F8724C
:104970001140018170470A46002101894FF68F736B
:10498000194011430181704730B504460D46294650
:104990002046FFF7F0FF208940F00700208130BD5E
:1049A0002DE9F04104460D4616461F46602D06D1FE
:1049B0003B46012231462046FFF775FE05E03B46A7
:1049C000012231462046FFF7A4FE29462046FFF784
:1049D000D2FF208940F007002081BDE8F08130B58A
:1049E0000C4600210189C9B24FF6FF7505EA03257F
:1049F000154325432943018130BD2DE9F04105468A
:104A00000E4617469846002443463A463146284605
:104A1000FFF7E5FF2C894FF6F870044044F00704D7
:104A20004FF68F70044044F070042C81BDE8F08193
:104A3000F0B504460D4616461F463B46324629460B
:104A40002046FFF7CCFF208940F480402081F0BD54
:104A500082884FF68F731A40828082880A43828050
:104A6000704702894FF6F8731A40028102890A439F
:104A70000281704702894FF67F731A4002810289D2
:104A80000A4302817047F0B50C4615461E460021C8
:104A9000002200230189028B038C4FF6F8773940FE
:104AA00021434FF6FC473A4040F201173A434FF694
:104AB000DD773B404FF6FF7707EA06172F433B436E
:104AC000018102830384F0BD21B1828842F080021B
:104AD000828004E082884FF67F731A40828070479C
:104AE000A0F8501070470000016821F0010101603A
:104AF0000021016041608160C1600161212141614B
:104B0000DA49884204D13D21D84A103A91608CE0BC
:104B1000D6491831884205D14FF47461D34A103A0E
:104B2000916082E0D1493031884205D14FF474114F
:104B3000CE4A103A916078E0CC494831884205D19C
:104B40004FF07461C94A103A91606EE0C749603114
:104B5000884204D1C649C54A103AD16065E0C349CC
:104B60007831884204D1C349C04A103AD1605CE030
:104B7000BE499031884204D1BF49BC4A103AD16045
:104B800053E0BA49A831884205D14FF03D51B74AA8
:104B9000103AD16049E0B949884204D13D21B74A71
:104BA000083A116041E0B5491831884205D14FF407
:104BB0007461B24A083A116037E0B0493031884236
:104BC00005D14FF47411AD4A083A11602DE0AB499C
:104BD0004831884205D14FF07461A84A083A116003
:104BE00023E0A6496031884204D1A149A34A121F9B
:104BF00011601AE0A1497831884204D19D499F4A49
:104C0000121F116011E09D499031884204D19A49E8
:104C10009A4A121F116008E09849A831884204D1CD
:104C20004FF03D51954A121F1160704710B5002298
:104C30000268934B1A40CC680B6823434C692343AA
:104C40008C692343CC6923430C6A23434C6A234376
:104C50008C6A23434C6B23438C6B23431A430260BF
:104C6000426922F00702D1E90B3423431A4342611F
:104C70000B6943604B6883608B68C36010BD002183
:104C8000016041608160C160016141618161C16118
:104C9000016241628162C162016341638163704765
:104CA00021B1026842F00102026003E0026822F0D2
:104CB00001020260704721B1026842F400420260C2
:104CC00003E0026822F400420260704721B10268EA
:104CD00042F02002026003E0026822F0200202603B
:104CE0007047416070470146486880B2704722B102
:104CF000036843F40023036003E0036823F4002304
:104D000003600161704721B1026842F480220260B1
:104D100003E0026822F48022026070470AB1016158
:104D200000E0C1607047014600200A6812F4002FBD
:104D300001D0012000E000207047014600200A68F1
:104D400012F0010F01D0012000E000207047014661
:104D500000204A6902F03800704730B503460A4621
:104D600000200024454DAB4202D24049103901E0F9
:104D70004249103912F0005F01D04C6800E00C6825
:104D8000404D2C40144201D0012000E0002030BDF5
:104D900002463A4B9A4202D23448103801E0374872
:104DA000103811F0005F03D0364B0B40C36002E0B7
:104DB000344B0B408360704710B511F0800F09D061
:104DC00022B1436943F08003436103E0436923F068
:104DD0008003436180290BD02AB1036801F01E04CF
:104DE0002343036004E0036801F01E04A34303604F
:104DF00010BD70B502460020002400251F4EB242AF
:104E000002D21A4B103B01E01C4B103B1E4E3142AC
:104E100006D01E2606EAD124166806EA040502E03A
:104E2000566906F0800511F0005F01D05C6800E073
:104E30001C68144E34400C4202D00DB1012000E039
:104E4000002070BD02460D4B9A4202D2074810382E
:104E500001E00A48103811F0005F03D0094B0B4005
:104E6000C36002E0074B0B40836070471060024054
:104E70003D000020400F002000003D201064024053
:104E80003F801CF07D0F7D0F3C0F3C0FF0EE400A81
:104E9000F6EE001A60EEA11AB0EE611AB0EE600AEA
:104EA00010EE100AFE49A1EB600000EE100A21EEA0
:104EB000002AF7EE081A42EE401A61EE801AB0EEB0
:104EC000610A704700B52DED108B97B0B0EE409A97
:104ED000F0EE609AB0EE41AAF0EE61BAF0EE42AAAE
:104EE000B0EE62BAEF4890ED000A20EE000A8DEDB8
:104EF000130A90ED000AEC48D0ED000A20EE200ADB
:104F00008DED120AE74890ED000AE848D0ED000A5E
:104F100020EE200A8DED110AE24890ED000AE448E7
:104F2000D0ED000A20EE200A8DED100ADE4890ED4B
:104F3000000A20EE000A8DED0F0A90ED000ADB4812
:104F4000D0ED000A20EE200A8DED0E0AD64890ED35
:104F5000000AD748D0ED000A20EE200A8DED0D0A98
:104F6000D24890ED000A20EE000A8DED0C0A90ED7B
:104F7000000ACF48D0ED000A20EE200A8DED0B0A82
:104F800090ED000A20EE000A8DED0A0A01F0C9FA40
:104F9000C849086008460068C749096888420CD3B8
:104FA000C4480068C4490968401A00EE100AB8EE07
:104FB000400ADFEDC20AC0EE208ABE480068BE4942
:104FC00008606BEEAB0A4AEEAA0A4BEE0B0AB0EE93
:104FD000600AFFF75BFFB0EE408AB0EE480A2BEEA6
:104FE000800AF0EE40BAB0EE480A2AEE800AF0EEEF
:104FF00040AAB0EE480A2BEE000AB0EE40BA9DED92
:105000000D0ADDED110A30EE600AF0EE000A20EE26
:1050100020FA9DED120ADDED0B0A30EE200AF0EECB
:10502000000A60EE20FA9DED130ADDED0F0A70EE26
:10503000600A9DED0C0A70EEC00A9DED0A0A30EE82
:10504000800A8DED150A9DED150A2AEE800AB0EE54
:1050500040CA0BEE6FCA6BEE0F0A9DED150AF0EE1B
:1050600060CA4BEEC0CA2BEEAF0AB0EE40DA0AEED1
:10507000CFDAB5EEC0CAF1EE10FA51D0F5EEC0CAE3
:10508000F1EE10FA4CD0B5EEC0DAF1EE10FA47D0DE
:105090009FED8B0A6CEE000A8A4890ED000A00EE44
:1050A000A80A80ED000A9FED860A6CEE800A864809
:1050B00090ED000A00EEA80A80ED000A9FED800A3C
:1050C0006DEE000A814890ED000A00EEA80A80ED1E
:1050D000000AF7EE000AB0EE490A00EE8C0A7948A1
:1050E000D0ED000A30EE200AB0EE409AF7EE000A4A
:1050F000B0EE690A00EEAC0A7348D0ED000A30EE5B
:10510000200AF0EE409AF7EE000AB0EE4A0A00EEEE
:105110008D0A6E48D0ED000A30EE200AB0EE40AAAB
:10512000614890ED000AB1EE400A20EE090A5F489E
:10513000D0ED000A00EEE90A5D4890ED001AF0EEAD
:10514000400A41EE4A0A574890ED000A00EEA80ACC
:105150008DED140A90ED000A20EE090A5348D0EDB7
:10516000000A00EE8A0A5248D0ED000A00EEE90A71
:105170004D48D0ED000AF0EE60DA40EE28DA4948FA
:1051800090ED000A20EE290A4748D0ED000A00EE13
:10519000CA0A4748D0ED000A00EE890A4348D0ED1C
:1051A000000AB0EE60EA00EE28EA3E4890ED000A00
:1051B00020EE0A0A3C48D0ED000A00EEA90A3B485E
:1051C000D0ED000A00EEC90A3948D0ED000AF0EE31
:1051D00060EA40EE28EADDED140A60EEA00A4DEE2A
:1051E000AD0A4EEE0E0A4EEEAE0AB0EE600AFFF7C2
:1051F0004DFEB0EE408A9DED140A20EE080A2948C3
:1052000080ED000A2DEE880A274880ED000A2EEE78
:10521000080A264880ED000A2EEE880A244880ED10
:10522000000A224890ED000AF8EE000A20EE200A5B
:10523000D0ED000A20EE200A1D48D0ED000AB0EEA5
:10524000001A60EE810A90ED001A00EEC10AF7EE36
:10525000000A30EE200A10EE101A084603F0A2FEF3
:1052600041EC100B8DED020B0F4890ED000AF0EEB3
:10527000000A20EE200A0D48D0ED000A20EE200A98
:105280000848D0ED000AB0EE001A60EE810A084826
:1052900090ED001A00EE810A10EE101A084617E091
:1052A000DF59375FB8000020BC000020C00000209C
:1052B000C4000020D8000020D40000200024F449BD
:1052C0000AD7233CC8000020CC000020D0000020DA
:1052D00003F068FE41EC100B8DED000B9DED021B01
:1052E0009DED000B04F0E0FC8DED040B9DED040B37
:1052F00051EC100B81F0004141EC100B8DED060BD1
:105300009FED610B53EC102B9DED060B51EC100B38
:1053100003F037FD41EC100B8DED080B9DED080BF4
:1053200051EC100B03F051FE59498860594890ED3B
:10533000000AF8EE000A20EE200A5748D0ED000AD5
:1053400020EE200A554890ED001AF0EE000A61EEBA
:10535000200A534890ED001A00EE810A10EE101A50
:10536000084603F01FFE41EC100B8DED020B9DED86
:10537000020B04F06DF98DED040B9DED040B51EC67
:10538000100B81F0004141EC100B8DED060B9FEDF1
:105390003E0B53EC102B9DED060B51EC100B03F064
:1053A000F0FC41EC100B8DED080B9DED080B51EC62
:1053B000100B03F00AFE36490860364890ED000AEB
:1053C000F8EE000A20EE200AD0ED000A20EE200AB6
:1053D0003348D0ED000AB0EE001A60EE810A90ED7D
:1053E000001A00EEC10AF7EE000A30EE200A10EEB5
:1053F000101A084603F0D6FD41EC100B8DED040B9E
:10540000274890ED000AF0EE000A20EE200A22481C
:10541000D0ED000A20EE200A2048D0ED000AB0EEC0
:10542000001A60EE810A1B4890ED001A00EE810A16
:1054300010EE101A084603F0B5FD41EC100B8DED8F
:10544000020B9DED041B9DED020B04F02DFC8DED78
:10545000060B9FED0D0B53EC102B9DED060B51EC45
:10546000100B03F08EFC41EC100B8DED080B9DED45
:10547000080B51EC100B03F0A8FD0549486017B06C
:10548000BDEC108B00BD00000000006094A94C40F2
:1054900078030020BC000020C4000020B8000020D9
:1054A000C000002010B500BF01226B21D02000F009
:1054B0007CFAC4B24FF4FA70FAF700FF00226B21B5
:1054C000D02000F072FAC4B23220FAF7F7FE75214C
:1054D000D02000F0AAFA8B490870084600786828A6
:1054E000E2D100226B21D02000F05FFAC4B232205A
:1054F000FAF7E4FE00221921D02000F056FA2044E9
:10550000C4B23220FAF7DAFE03221A21D02000F0CA
:105510004CFA2044C4B23220FAF7D0FE10221B21EC
:10552000D02000F042FA2044C4B23220FAF7C6FE7E
:1055300009221C21D02000F038FA2044C4B23220C5
:10554000FAF7BCFE204610BD10B53B21D02000F07C
:105550006CFA6D4908703C21D02000F066FA6A4967
:1055600048703D21D02000F060FA674988703E21E4
:10557000D02000F05AFA6449C8703F21D02000F0D2
:1055800054FA614908714021D02000F04EFA5E497A
:1055900048714321D02000F048FA5B490872442149
:1055A000D02000F042FA584948724521D02000F03E
:1055B0003CFA554988724621D02000F036FA52490B
:1055C000C8724721D02000F030FA4F4908734821B3
:1055D000D02000F02AFA4C49487310BD10B52DEDCB
:1055E000048B4FF47A7408EE104A9FED480AF0EEEF
:1055F000408A9FED460AB0EE409A0021444841851A
:105600008185C1854348C1853CE0FFF79DFF3E4849
:10561000407A3D49097A40EA012000B23C49888439
:105620003948C07A3849897A40EA012001B23848BD
:10563000C1843548407B3449097B40EA012001B2EE
:1056400033480185B0F9240000EE100AB8EEC00A14
:1056500030EE280AF0EE408A2D48B0F9260000EE20
:10566000100AB8EEC00A30EE090AB0EE409A284897
:10567000B0F9280000EE100AB8EEC00A30EE290A90
:10568000F0EE409A2000A4F10104BED1B8EEC80AA1
:10569000C8EE800ABDEEE00A10EE100A01B21C4806
:1056A000C186B8EEC80AC9EE000ABDEEE00A10EEE7
:1056B000100A01B216480187B8EEC80AC9EE800A7E
:1056C000BDEEE00A10EE100A01B211484187FBF767
:1056D000B9FE0F4AB2F936100F4A1068FBF7BCFE4C
:1056E0000B4AB2F938100C4A5068FBF7B5FE084A6D
:1056F000B2F93A10084A9068FBF7AEFEBDEC048B95
:1057000010BD0000DC000020180400200000000094
:1057100088030020D0030020400000201CB5012198
:105720000220FDF787FB4FF48070009001208DF878
:1057300004008DF8050000208DF8060001208DF88A
:1057400007006946CD48FDF71FF84FF40070009040
:1057500001208DF804008DF805008DF8060000206A
:105760008DF807006946C548FDF70EF81CBD0620F8
:1057700000BF0100A0F10100FBD1704741F6583095
:1057800000E0401E0028FCD1704710B54FF40071B6
:10579000BA48FDF775F84FF48071B848FDF770F816
:1057A000FFF7E5FF4FF40071B448FDF74FF808B973
:1057B000002010BD4FF40071B048FDF763F8FFF70B
:1057C000D6FF4FF40071AD48FDF740F808B1002056
:1057D000EFE74FF40071A948FDF754F8FFF7C7FF52
:1057E0000120E6E710B54FF48071A448FDF74AF8B0
:1057F000FFF7BDFF4FF40071A048FDF743F8FFF736
:10580000B6FF4FF480719D48FDF73AF8FFF7AFFF00
:105810004FF400719948FDF733F8FFF7A8FF10BD6A
:1058200010B54FF480719548FDF72CF8FFF79FFFF6
:105830004FF400719148FDF725F8FFF798FF4FF4FA
:1058400080718E48FDF71CF8FFF791FF4FF48071CF
:105850008A48FDF717F8FFF78AFF10BD10B54FF41F
:1058600080718648FDF70EF8FFF781FF4FF4007155
:105870008248FDF705F8FFF77AFF4FF480717F4803
:10588000FCF7FEFFFFF773FF4FF480717B48FCF7D6
:10589000F9FFFFF76CFF10BD10B54FF4807177482A
:1058A000FCF7F0FFFFF763FF4FF400717348FCF75C
:1058B000E7FFFFF75CFF4FF480717048FCF7E0FFF3
:1058C000FFF755FF4FF400716C48FCF7BFFF40B184
:1058D0004FF480716948FCF7D5FFFFF748FF0020BF
:1058E00010BD4FF480716548FCF7CCFFFFF73FFF18
:1058F0000120F5E770B5044608251FE04FF48071DC
:105900005E48FCF7BFFFFFF732FF14F0800F05D0B1
:105910004FF400715948FCF7B3FF04E04FF40071F5
:105920005648FCF7AFFF6006040EFFF720FF4FF468
:1059300080715248FCF7A4FFFFF719FF2800A5F17A
:105940000101CDB2DAD14FF480714C48FCF79AFFD7
:1059500070BD70B508250024A9014848FCF790FFE8
:1059600017E06006040E4FF480714448FCF78AFF8C
:10597000FFF7FDFE4FF480714048FCF781FFFFF711
:10598000F6FE4FF400713D48FCF760FF08B144F0AB
:1059900001042800A5F10101CDB2E2D14FF48071DC
:1059A0003648FCF76FFF204670BD70B506460C46C2
:1059B0001546FFF7EAFE08B9002070BD3046FFF734
:1059C00099FFFFF769FF18B9FFF70CFF0020F4E714
:1059D0002046FFF78FFFFFF75FFF2846FFF78AFF9C
:1059E000FFF75AFFFFF7FEFEFFF7C8FE0120E4E7CE
:1059F00070B505460C46FFF7C8FE08B9002070BD1B
:105A00002846FFF777FFFFF747FF18B9FFF7EAFED1
:105A10000020F4E72046FFF76DFFFFF73DFFFFF79B
:105A2000E1FEFFF7ABFE0120E9E770B504460D4645
:105A3000FFF7ABFE08B9002070BD2046FFF75AFF04
:105A4000FFF72AFF18B9FFF7CDFE0020F4E728463C
:105A5000FFF750FFFFF720FFFFF797FE611CC8B26A
:105A6000FFF748FFFFF718FFFFF773FF0646FFF742
:105A7000F5FEFFF7B7FE3046DEE700000004024007
:105A8000FE4890ED0F0AB1EE400ADFEDFD0A80EE10
:105A9000201AFC4880ED061AFB4890ED010AB1EE91
:105AA000400AF84880ED030AB0F90410F748B0F84E
:105AB0004E00081A00EE100AB8EEC00ADFEDF40A34
:105AC00020EE200AEF4880ED020AEC4890ED110A22
:105AD000DFEDEB0A80EE201AEE4880ED061A90ED1D
